:1000F500E4F5B1F5B1F5B3F5B4F5ACF5AD438E0264
:10010500D2B030B01CC2927FC87E007D007C001248
:1001150002FCD2927FC87E007D007C001202FC802A
:10012500E1A2AF9200C2AF75C7AA75C75543960441
:10013500A20092AFA2AF9200C2AF75C7AA75C7550C
:100145005396FDA20092AFE59720E0FBA2AF920087
:10015500C2AF75C7AA75C7555397DFA20092AFC244
:10016500927F147E007D007C001202FCD2927F14E7
:0C0175007E007D007C001202FC80E42271
:1003C900538EF7438901D28CEF4E6012758AF3750B
:1003D9008CFF308DFDC28DEF1F70011E80EAC28C2B
:0103E90022F1
:1002FC008F1F8E1E8D1D8C1C538EF7438901D28C43
:10030C00E4FFFEFDFCAB1FAA1EA91DA81CC3120016
:10031C00D16025758ACA758CFA308DFDC28DE51FAA
:10032C0024FFF51FE51E34FFF51EE51D34FFF51DFA
:0B033C00E51C34FFF51C80C8C28C22B9
:100347008F0B8E0A8D098C08538EEF438910D28E3E
:10035700E4FFFEFDFCAB0BAA0AA909A808C312001B
:10036700D16025758BCA758DFA308FFDC28FE50B6D
:1003770024FFF50BE50A34FFF50AE50934FFF50913
:0B038700E50834FFF50880C8C28E2294
:100261008F0F8E0E8D0D8C0C53C9BF53C9DF43C93F
:1002710010D2CAE4FFFEFDFCAB0FAA0EA90DA80C1B
:10028100C31200D1602575CC6075CDF030CFFDC2B1
:10029100CFE50F24FFF50FE50E34FFF50EE50D3424
:0E02A100FFF50DE50C34FFF50C80C8C2CA2233
:1002AF008F138E128D118C1075C40243C408E4FF96
:1002BF00FEFDFCAB13AA12A911A810C31200D16046
:1002CF002875C56075C6F0E5C430E4FB53C4EFE58F
:1002DF001324FFF513E51234FFF512E51134FFF582
:0D02EF0011E51034FFF51080C553C4F7224F
:1003920053B1BF53B2BF53B17F53B27F759852432B
:1003A2008920438780438E1053C4DFAB07AA06A976
:1003B20005A8047F407E427D0F7C0012003FEF04BF
:0703C200F404F58DD28E2238
:100181008F178E168D158C1453B1BF53B2BF53B157
:100191007F53B27F75985243878053C4F843C4207C
:1001A100AB17AA16A915A8147F407E427D0F7C00CB
:1001B10012003FC374FF9FFF74FF9EFEE49DFDE4A8
:1001C1009CFC78081200E28FC6AB17AA16A915A8E5
:1001D100147F407E427D0F7C0012003FC374FF9F5D
:1001E100FF74FF9EFEE49DFDE49CFCEFE48FC5439C
:0301F100C408221D
:070404003098FDAF99C2988A
:01040B0022CE
:08040C00C2998F993099FD227D
:1001F4008F1B8E1A8D198C1853B1FB53B2FB53B35A
:10020400BF53B4BF75F85253C4F8AB1BAA1AA9194B
:10021400A8187F407E427D0F7C0012003FC374FF0C
:100224009FFF74FF9EFEE49DFDE49CFC7808120091
:10023400E28FC6AB1BAA1AA919A8187F407E427D7B
:100244000F7C0012003FC374FF9FFF74FF9EFEE407
:0D0254009DFDE49CFCEFE48FC543C408222F
:0704140030F8FDAF9AC2F8B9
:01041B0022BE
:08041C00C2F98F9A30F9FD22AC
:030000000203EA0E
:1003EA00787FE4F6D8FD9000007FFF7E03E4F0A357
:0A03FA00DFFCDEFA7581200200F539
:1000030075F008758200EF2FFFEE33FECD33CDCCB4
:1000130033CCC58233C5829BED9AEC99E582984037
:100023000CF582EE9BFEED9AFDEC99FC0FD5F0D614
:10003300E4CEFBE4CDFAE4CCF9A88222B800C1B93E
:100043000059BA002DEC8BF084CFCECDFCE5F0CB7C
:10005300F97818EF2FFFEE33FEED33FDEC33FCEBB5
:1000630033FB10D703994004EB99FB0FD8E5E4F970
:10007300FA227818EF2FFFEE33FEED33FDEC33FC5D
:10008300C933C910D7059BE99A4007EC9BFCE99A51
:10009300F90FD8E0E4C9FAE4CCFB2275F010EF2F96
:1000A300FFEE33FEED33FDCC33CCC833C810D70796
:1000B3009BEC9AE899400AED9BFDEC9AFCE899F8D1
:0E00C3000FD5F0DAE4CDFBE4CCFAE4C8F92264
:1000D100EB9FF5F0EA9E42F0E99D42F0E89C45F085
:0100E10022FC
:1000E200E8600FECC313FCED13FDEE13FEEF13FFFC
:0300F200D8F12220
:00000001FF
