:03008B000200036D
:10000300C0E0C0F0C083C082C0D075D000C000C0C3
:1000130001C002C003C004C005C006C007D2927F5E
:10002300647E007D007C0012008EC2927F647E009D
:100033007D007C0012008ED292538FEFD007D00642
:10004300D005D004D003D002D001D000D0D0D082CC
:07005300D083D0F0D0E032B1
:1001BF00E4F5B1F5B1F5B3F5B4F5ACF5AD758F0266
:1001CF00F586439C04438F08D2AFD2847F647E00B0
:1001DF007D007C00120174C2847F647E007D007CF0
:1001EF0000120174D2847F647E007D007C001201B6
:0501FF0074C28480D5EC
:10005A00538EF7438901D28CEF4E6012758AF3757D
:10006A008CFF308DFDC28DEF1F70ED1E80EAC28CB1
:01007A002263
:100129008F138E128D118C10538EF7438901D28C47
:10013900E4FFFEFDFCAB13AA12A911A810C3120219
:100149001E6025758ACA758CFA308DFDC28DE5133E
:1001590024FFF513E51234FFF512E51134FFF5110B
:0B016900E51034FFF51080C8C28C22A6
:100174008F0F8E0E8D0D8C0C538EEF438910D28E03
:10018400E4FFFEFDFCAB0FAA0EA90DA80CC31202DE
:100194001E6025758BCA758DFA308FFDC28FE50FF1
:1001A40024FFF50FE50E34FFF50EE50D34FFF50DD4
:0B01B400E50C34FFF50C80C8C28E2261
:10008E008F0B8E0A8D098C0853C9BF53C9DF43C924
:10009E0010D2CAE4FFFEFDFCAB0BAA0AA909A80800
:1000AE00C312021E602575CC6075CDF030CFFDC237
:1000BE00CFE50B24FFF50BE50A34FFF50AE509340D
:0E00CE00FFF509E50834FFF50880C8C2CA2214
:1000DC008F178E168D158C1475C40243C408E4FF5B
:1000EC00FEFDFCAB17AA16A915A814C312021E60BC
:1000FC002875C56075C6F0E5C430E4FB53C4EFE564
:10010C001724FFF517E51634FFF516E51534FFF542
:0D011C0015E51434FFF51480C553C4F72217
:03000000020204F5
:10020400787FE4F6D8FD9000007FFF7E03E4F0A33E
:0A021400DFFCDEFA7581200201BF55
:10021E00EB9FF5F0EA9E42F0E99D42F0E89C45F036
:01022E0022AD
:00000001FF
