:03005B000206F9A1
:1006F900C0E0C0F0C083C082C0D075D000C000C0C7
:1007090001C002C003C004C005C006C007C2EFAFE4
:10071900C312000BAFC212000BD007D006D005D010
:1007290004D003D002D001D000D0D0D082D083D061
:04073900F0D0E032EA
:10065000E4F5B1F5B1F5B3F5B4F5ACF5ADFF7EC297
:100660007D01FC1205E353E8F043E80443B1205355
:10067000B2DFE4F5F643F61043E10143E83053E11D
:10068000F343E10243E140D2AED2AFD2EEE475379C
:10069000FF7536FFF535F534783474FF12049DECA0
:0706A0004D4E4F60E680F1B2
:0400130041000000A8
:1005E3008F3B8E3A8D398C3853B1BF53B2BF53B161
:1005F3007F53B27F75985243878053C4F843C42016
:10060300AB3BAA3AA939A8387F407E427D0F7C00D4
:100613001203F6C374FF9FFF74FF9EFEE49DFDE487
:100623009CFC78081204888FC6AB3BAA3AA939A868
:10063300387F407E427D0F7C001203F6C374FF9F18
:0D064300FF8FC543C408D299D2ACD2AF22BC
:070003003098FDAF99C2988F
:01000A0022D3
:08000B00C2998F993099FD2282
:030018000200C023
:10073D0075C7AA75C755439F0275C7AA75C755A238
:10074D00AF9200C2AF75C7AA75C755439F80A2006F
:03075D0092AF2236
:030023000206A72B
:1006A700C0E0C083C082C0D075D000C005C006C0FE
:0106B700073B
:1006B80030982AC298AF99BFAE047E0180027E00AE
:1006C800BFA4047D0180027D00ED4E600A12073D43
:1006D800900000E4F08006900000E02FF0309902CE
:0206E800C299B5
:0F06EA00D007D006D005D0D0D082D083D0E03258
:03000000020549AD
:10054900787FE4F6D8FD9000007FFF7E03E4F0A3F6
:0A055900DFFCDEFA75813B02059E0F
:10056300020650E493A3F8E493A34003F68001F258
:1005730008DFF48029E493A3F85407240CC8C33399
:10058300C4540F4420C8834004F456800146F6DF68
:10059300E4800B0102040810204080900013E47EE5
:1005A300019360BCA3FF543F30E509541FFEE4935D
:1005B300A360010ECF54C025E060A840B8E493A324
:1005C300FAE493A3F8E493A3C8C582C8CAC583CA4F
:1005D300F0A3C8C582C8CAC583CADFE9DEE780BE07
:0100170000E8
:1003BA0075F008758200EF2FFFEE33FECD33CDCCFA
:1003CA0033CCC58233C5829BED9AEC99E58298407D
:1003DA000CF582EE9BFEED9AFDEC99FC0FD5F0D65A
:1003EA00E4CEFBE4CDFAE4CCF9A88222B800C1B984
:1003FA000059BA002DEC8BF084CFCECDFCE5F0CBC2
:10040A00F97818EF2FFFEE33FEED33FDEC33FCEBFA
:10041A0033FB10D703994004EB99FB0FD8E5E4F9B5
:10042A00FA227818EF2FFFEE33FEED33FDEC33FCA2
:10043A00C933C910D7059BE99A4007EC9BFCE99A96
:10044A00F90FD8E0E4C9FAE4CCFB2275F010EF2FDB
:10045A00FFEE33FEED33FDCC33CCC833C810D707DB
:10046A009BEC9AE899400AED9BFDEC9AFCE899F816
:0E047A000FD5F0DAE4CDFBE4CCFAE4C8F922A9
:10048800E8600FECC313FCED13FDEE13FEEF13FF52
:03049800D8F12276
:10049B007401FF3395E0FEFDFC080808E6CF2FF64C
:1004AB0018E6CE3EF618E6CD3DF618E6CC3CF62225
:10005E00E517240BF8E60517227808300702780B0F
:10006E00E475F0011205130204BB2000EB7F2ED2C3
:10007E00008018EF540F2490D43440D4FF30040B7A
:10008E00EF24BFB41A0050032461FFE51860021577
:10009E0018051BE51B7002051A30070D7808E4756C
:1000AE00F001120513EF0205010200267403D207B8
:1000BE008003E4C207F5178B088A09890AE4F5184C
:1000CE00F51AF51BE51860077F2012009980F5756B
:1000DE0019FFC201C200C202C203C205C206C20893
:1000EE00120067FF700D3007057F001200AAAF1BCC
:1000FE00AE1A22B4255FC2D5C204120067FF24D007
:10010E00B40A00501A75F00A781830D50508B6FFF3
:10011E000106C6A426F620D5047002D20380D92487
:10012E00CFB41A00EF5004C2E5D2040202AAD201E3
:10013E0080C6D20080C0D20280BCD2D580BAD20591
:10014E0080B47F201200992002077401B518004078
:10015E00F112005EFF1200990200D2D208D2068080
:10016E009512005EFB12005EFA12005EF94A4B70A9
:10017E0006797B7A037BFF20022EE518602A7E002B
:10018E008E827583001204D460060EEE651970F02F
:10019E00C2D5EBC0E0EAC0E0E9C0E0EE1202F1D059
:1001AE00E0F9D0E0FAD0E0FB1204BBFF60AAEBC08E
:1001BE00E0EAC0E0E9C0E0120099D0E02401F9D0F5
:1001CE00E03400FAD0E0FBE5190460DCD519D980E3
:1001DE00877BFF7A0279EDD202809C7910800279BA
:1001EE0008C206C2088008D2D5790A8004790AC2EC
:1001FE00D5E519047002F519E4FAFDFEFF12005E52
:10020E00FC7B0820011312005EFD7B1030000A12E9
:10021E00005EFE12005EFF7B20EC3382D592D5503D
:10022E0013C3E43000069FFFE49EFEE42001039D0D
:10023E00FDE49CFCE4CBF8C201EC700CCFCECDCC2F
:10024E00E824F8F870F38017C3EF33FFEE33FEEDBA
:10025E0033FDEC33FCEB33FB994002FB0FD8E9EB9B
:10026E00300105F8D0E0C448B201C0E00AEC4D4EB2
:10027E004F78207B0070C2EAB5190040BCC0E01276
:10028E0002F3D0F0D0E0200104C4C0E0C4B201C03B
:10029E00F0120082D0F0D5F0EB0200D2120523014D
:1002AE006F5301E95801404C013C4201ED4F01F5FD
:0F02BE004401F54901554301FB5501DF4601DFBE
:1002CD004501DF47039B5001442D01482E016B2B47
:1002DD00014C2301692003842A01044800000163B5
:1002ED003F3F3F00790AA2D5200314300509B9100C
:1002FD00020404B9080104A2D5200602500104200D
:10030D0002689202B518005034C0E07F2030031906
:10031D007F30A20272067205500F12034AC202C24A
:10032D0006C205C2087F30800F300503E9C0E01218
:10033D000099300503D0E0F9D0E0B518CC300517A1
:10034D007F30B9100C1200997F583004077F7880E8
:10035D0003B908031200993002057F2D0200997F21
:10036D00202008F87F2B2006F322920280CF286EE2
:10037D00756C6C2900D20112005E3001F8C2017853
:10038D001830D50108F60201042D504349581200CA
:10039D005E2403B405004001E49003969312008A95
:0D03AD00743A12008AD2037518040201E9A7
:1004BB00BB010689828A83E0225002E722BBFE023F
:0904CB00E32289828A83E4932272
:1004D400BB010CE58229F582E5833AF583E02250DD
:1004E40006E92582F8E622BBFE06E92582F8E22227
:0D04F400E58229F582E5833AF583E4932241
:10050100BB010689828A83F0225002F722BBFE01D9
:02051100F322D3
:10051300FAE6FB0808E6F925F0F618E6CA3AF622E9
:10052300D083D082F8E4937012740193700DA3A367
:1005330093F8740193F5828883E47374029368607B
:06054300EFA3A3A380DF7B
:10002600EFB40A07740D120031740A309811A899BA
:10003600B8130CC2983098FDA899C298B811F6303A
:0700460099FDC299F5992212
:00000001FF
