:1000B200A2AF9200C2AF75C7AA75C755439F01A2EE
:1000C2000092AF75A604E4F5A775AE0F75AFE1A275
:1000D200AF9200C2AF75C7AA75C75543A504A20067
:1000E20092AFA2AF9200C2AF75C7AA75C75543A41B
:1000F20001A20092AFE59F20E6FBA2AF9200C2AF41
:1001020075C7AA75C75553A5FBA20092AFA2AF92BD
:1001120000C2AF75C7AA75C755539FFEA20092AF22
:0101220022BA
:10000300E4F5B1F5B1F5B3F5B4F5ACF5ADC2927F56
:1000130032FEFDFC1201BED2927F327E007D007C57
:10002300001201BEC2927F327E007D007C0012016D
:10003300BED2927F327E007D007C001201BE75C766
:10004300AA75C75575AA07A2AF9200C2AF75C7AA12
:1000530075C75543AA40A20092AFE5AA44BFF46016
:10006300F9D2AFA2AF9200C2AF75C7AA75C7554305
:10007300AA80A20092AFC2927FF47E017D007C0031
:100083001201BED2927FF47E017D007C001201BE7C
:10009300C2927FF47E017D007C001201BED2927F6A
:0F00A300F47E017D007C001201BE43870280C7FE
:10025400538EF7438901D28CEF4E6012758AF37581
:100264008CFF308DFDC28DEF1F70ED1E80EAC28CB5
:010274002267
:1001BE008F178E168D158C14538EF7438901D28CA2
:1001CE00E4FFFEFDFCAB17AA16A915A814C3120274
:1001DE008F6025758ACA758CFA308DFDC28DE51734
:1001EE0024FFF517E51634FFF516E51534FFF51562
:0B01FE00E51434FFF51480C8C28C2209
:100209008F0B8E0A8D098C08538EEF438910D28E7D
:10021900E4FFFEFDFCAB0BAA0AA909A808C3120258
:100229008F6025758BCA758DFA308FFDC28FE50BEE
:1002390024FFF50BE50A34FFF50AE50934FFF50952
:0B024900E50834FFF50880C8C28E22D3
:100123008F0F8E0E8D0D8C0C53C9BF53C9DF43C97E
:1001330010D2CAE4FFFEFDFCAB0FAA0EA90DA80C5A
:10014300C312028F602575CC6075CDF030CFFDC230
:10015300CFE50F24FFF50FE50E34FFF50EE50D3463
:0E016300FFF50DE50C34FFF50C80C8C2CA2272
:100171008F138E128D118C1075C40243C408E4FFD5
:10018100FEFDFCAB13AA12A911A810C312028F60C5
:100191002875C56075C6F0E5C430E4FB53C4EFE5CE
:1001A1001324FFF513E51234FFF512E51134FFF5C1
:0D01B10011E51034FFF51080C553C4F7228E
:0300000002027584
:10027500787FE4F6D8FD9000007FFF7E03E4F0A3CD
:0A028500DFFCDEFA758120020003A1
:10028F00EB9FF5F0EA9E42F0E99D42F0E89C45F0C5
:01029F00223C
:00000001FF
