:100000000214C2021BBAD286D2870000D286000038
:10001000C28600000000C2870000220212BFD2EE9A
:0100200022BD
:10002300021760900002EFF0C299900002E0FF8F88
:05003300993099FD2247
:10003B00021A7F900006E4F0900006E0FFEFC394F5
:0C004B00645008900006E004F080ED22F4
:10005B000217D1EC4D6011E8497017ED33EC330406
:10006B00600DE4FCFFFEFD22E933E8330470F80277
:10007B00029812026358046009E4CC2481500628CC
:10008B0050090202A228400302029FC0E0EB4A7013
:10009B0044B98006D0E0FB02028EEF4E701CBD808F
:1000AB0008EBFFEAFEE9FD80EBE98DF0A4FEE5F03D
:1000BB00020147E9CDF9EAFEEBFFEF89F0A4FCE57D
:1000CB00F0CE89F0A42EFFE435F0CD89F0A42DFEFF
:1000DB00E435F08067EF4E7005BD80D780C3EF8BA2
:1000EB00F0A4ACF0EE8BF0A42CFCE435F0F8EF8A26
:1000FB00F0A42CE5F038FCE433CB8DF0A42CFCE51C
:10010B00F03BF8EE8AF0A42CFCE5F038F8E433CFA2
:10011B0089F0A42CFCE5F038CF3400CE89F0A42F65
:10012B00FFE5F03EFEE433C98DF0A42EFEE5F03979
:10013B00CD8AF0A42FFFE5F03EFEE43DFD33D0E089
:10014B00FB50070BBB000F0202A2EC2CFCEF33FFA2
:10015B00EE33FEED33FD02027A74F8CC6480CCC82A
:10016B006480C8F58204604FC3EB9FF5F0EA9E42B2
:10017B00F0E99D42F0E89C45F0603C501DE5825F44
:10018B00FFE582D313CB5BCBF42B5582FB50280AB4
:10019B00BA002409B9002008801DE5825BFBE582CB
:1001AB00D313CF5FCFF4C3132F5582FF50090EBE6D
:1001BB0000050DBD00010CC3EB9FF5F0EA9E42F06C
:1001CB00E99D42F0E89C45F06007CC4820E701B37D
:1001DB00EC22ED33EC33600A047003BD8004ECB207
:1001EB00E7FC2275F020800E75F010800575F00885
:1001FB007D007E007F003392D530D5031207E9ECEA
:10020B00334010EF33FFEE33FEED33FDEC33FCD513
:10021B00F0ED22E5F0247EA2D513CC92E7CDCEFFF4
:10022B0022EDD2E7CD33EC3392D524814006E4FFA7
:10023B00FEFDFC22FCE4CFCECDCC24E0501174FFAC
:10024B0080EDC3CC13CCCD13CDCE13CECF13CF04B7
:10025B0070F030D5DE0207E9E9D2E7C933E833F8AD
:10026B0092D5EDD2E7CD33EC33FC5002B2D522EC74
:10027B0030E7100FBF000C0EBE00080DBD00040BC5
:10028B00EB6014A2D5EB13FCED92E7FD2274FFFC9F
:10029B00FDFEFF22E480F8A2D574FF13FC7D80E401
:1002AB0080EFF920E73624F950037907E4F42402B0
:1002BB00FBE582158270021583DBF6E024FB501BF5
:1002CB00E96014E4F0E582158270021583E004F016
:1002DB00B40A08E4F0D9EE7401F00A22C2D522ED7B
:1002EB0033EC3392D5FA602AB4FF33EDC2E77BFFD0
:1002FB0060067A03790FE4227A03791820D5047A01
:10030B00037913224E614E002B494E46002D494E68
:10031B004600E47A08F0A3DAFC7B00740722C08362
:10032B00C082ECC0E0EDC0E0EEC0E0EFC0E0EA75EB
:10033B00F010A4CAABF075F04DA42BFBE435F0FC28
:10034B00EA2410FAEB34C5FBEC34D9FCEDC2E7FF21
:10035B0075F056A4F42411C5F0F434C58FF0A42A1B
:10036B00E5F03BE43CF020E7141205B7D0E0FFD0FA
:10037B00E0FED0E0FDD0E0FC1204EA8014F404129D
:10038B0005B7D0E0FFD0E0FED0E0FDD0E0FC1200DE
:10039B005ED082D083E0FAEDD2E7CD33EC3324820A
:1003AB00FBE4C3CF33CFCE33CECD33CD33DBF37BB7
:1003BB000775F00A846004F0A31B0AE5F0F0A38F25
:1003CB00F0740AA4FFACF08EF0740AA42CFEACF00F
:1003DB0050010C8DF0740AA42CFDE435F0F0A3DB76
:1003EB00DE740722020298E86480F8E933E8336090
:1003FB00110460F0ED33EC337009E8FCE9FDEAFE23
:10040B00EBFF220460DED3EB9FEA9EE99DE8C2E797
:10041B008CF0C2F795F0400CE8CCF8E9CDF9EACEB8
:10042B00FAEBCFFB12026385D0F05804700320D592
:10043B00B3E80470075002B2D50202A292D5EC04C5
:10044B0060F7E4CCC0E0C398F8603B9418600840B8
:10045B000DD0E0FB02027AE4FBFAC9FC8028E830FD
:10046B00E406E4C9FBE4CAFCE830E305E4C9CACB03
:10047B00FCE854076010F8C3E913F9EA13FAEB131D
:10048B00FBEC13FCD8F130F52FC3E49CFCEF9BFF86
:10049B00EE9AFEED99FDD0E0FBEF4E4D4C70122223
:1004AB00DB0302029FEC2CFCEF33FFEE33FEED334C
:1004BB00FDED30E7EB02027AEF2BFFEE3AFEED3962
:1004CB00FDD0E0FB50130BBB00030202A2ED13FDAA
:1004DB00EE13FEEF13FFEC13FC02027A0202A2EC06
:1004EB005D046005E8590470030202981202635818
:1004FB000460F6EC4860F2EC7004FDFEFF22C8606D
:10050B00DB2481C85009C3986002500602029F98F1
:10051B0050CAF582E9294B4A7005AB8202028E75EF
:10052B00F0007C1A7880C3EF9BEE9AED99400DC3D7
:10053B00EF9BFFEE9AFEED99FDE842F0DC23ACF069
:10054B00D0E0FFD0E0FED0E0FDAB8220E7101BEB4C
:10055B0060BAEC2CFCEF33FFEE33FEED33FD020201
:10056B007AE803F830E705C0F075F000EF2FFFEEE7
:10057B0033FEED33FD40B830E7C280AA3F80000068
:10058B004120000042C80000447A0000461C400095
:10059B0047C35000497424004B1896804CBEBC20B6
:1005AB005A0E1BCA6753C21C749DC5AEFB60065422
:1005BB0007601C23231205E5EB543860091205D1A3
:1005CB001205E012005EECF8EDF9EEFAEFCB22EB40
:1005DB001205E080F1543803241C900587FE93FC30
:1005EB000EEE93FD0EEE930ECE93FF22BB0106890A
:1005FB00828A83E0225002E722BBFE02E322898239
:10060B008A83E49322BB010CE58229F582E5833AC8
:10061B00F583E0225006E92582F8E622BBFE06E9C7
:10062B002582F8E222E58229F582E5833AF583E417
:10063B009322BB010689828A83F0225002F722BBE8
:10064B00FE01F322EF8DF0A4A8F0CF8CF0A428CEFE
:10065B008DF0A42EFE22BC000BBE0029EF8DF08482
:10066B00FFADF022E4CCF875F008EF2FFFEE33FE70
:10067B00EC33FCEE9DEC984005FCEE9DFE0FD5F0A7
:10068B00E9E4CEFD22EDF8F5F0EE8420D21CFEADB0
:10069B00F075F008EF2FFFED33FD4007985006D5AE
:1006AB00F0F222C398FD0FD5F0EA22A3F8E0C5F0D3
:1006BB0025F0F0E582158270021583E0C838F0E86A
:1006CB0022E88FF0A4CC8BF0A42CFCE98EF0A42CA8
:1006DB00FC8AF0EDA42CFCEA8EF0A4CDA8F08BF0F4
:1006EB00A42DCC3825F0FDE98FF0A42CCD35F0FCF2
:1006FB00EB8EF0A4FEA9F0EB8FF0A4CFC5F02ECDBE
:10070B0039FEE43CFCEAA42DCE35F0FDE43CFC22A2
:10071B0075F008758200EF2FFFEE33FECD33CDCC95
:10072B0033CCC58233C5829BED9AEC99E582984018
:10073B000CF582EE9BFEED9AFDEC99FC0FD5F0D6F5
:10074B00E4CEFBE4CDFAE4CCF9A88222B800C1B91F
:10075B000059BA002DEC8BF084CFCECDFCE5F0CB5D
:10076B00F97818EF2FFFEE33FEED33FDEC33FCEB96
:10077B0033FB10D703994004EB99FB0FD8E5E4F951
:10078B00FA227818EF2FFFEE33FEED33FDEC33FC3E
:10079B00C933C910D7059BE99A4007EC9BFCE99A32
:1007AB00F90FD8E0E4C9FAE4CCFB2275F010EF2F77
:1007BB00FFEE33FEED33FDCC33CCC833C810D70777
:1007CB009BEC9AE899400AED9BFDEC9AFCE899F8B2
:1007DB000FD5F0DAE4CDFBE4CCFAE4C8F922C3E49C
:1007EB009FFFE49EFEE49DFDE49CFC22EB9FF5F055
:1007FB00EA9E42F0E99D42F0E89C45F022E8600F4A
:10080B00ECC313FCED13FDEE13FEEF13FFD8F12237
:10081B007401FF3395E0FEFDFCA3A3A3E0CF2FF003
:10082B00E582158270021583E0CE3EF0E5821582DB
:10083B0070021583E0CD3DF0E582158270021583C1
:10084B00E0CC3CF022ECF0A3EDF0A3EEF0A3EFF044
:10085B0022A8828583F0D083D0821208731208738A
:10086B00120873120873E473E493A3C583C5F0C530
:10087B0083C8C582C8F0A3C583C5F0C583C8C5822C
:10088B00C822F8E0FBA3A3E0F925F0F0E58215827E
:10089B0070021583E0FA38F022EBF0A3EAF0A3E93B
:1008AB00F022D083D082F8E4937012740193700D10
:1008BB00A3A393F8740193F5828883E47374029372
:1008CB006860EFA3A3A380DF900002EEF0A3EFF02C
:1008DB00900057E0FFEF1208AD090600094E010921
:1008EB009F020A06030A7E040AB3050AF9060B45A2
:1008FB00070BA1080C080900000C0B12001E90003E
:10090B0002E0FEA3E0FF7C077DD0120661ED4C7088
:10091B000F900053E0FCA3E0FDE41201F3120C0C6A
:10092B001216E4900053E0FEA3E0FFC3E49FFF74B4
:10093B00089EFEEF7804CEA2E713CE13D8F8FF1271
:10094B0018A62212001E900002E0FEA3E0FF7C0717
:10095B007DD0120661ED4C700F900053E0FCA3E0CC
:10096B00FDE41201F3120C0C900053E0FCA3E0FD2C
:10097B00900002E0FEA3E0FF120661ED4C7002B2A4
:10098B00013001087FFF7E001218A6227F017EFF37
:10099B001218A62290002EE0FEA3E0FF7B007A0047
:1009AB007DE57C0F120E7690002EEEF0A3EFF01289
:1009BB00001E900002E0FEA3E0FF7C077DD0120634
:1009CB0061ED4C700F900053E0FCA3E0FDE41201CD
:1009DB00F3120C0C90002EE0FEA3E0FF900053E00E
:1009EB00FCA3E0FDD3ED9FEC9E40087FFF7E001241
:1009FB0018A6227F017EFF1218A62290002EE0FE81
:100A0B00A3E0FF7B007A007DE57C0F120E76900051
:100A1B002EEEF0A3EFF012001E900002E0FEA3E01A
:100A2B00FF7C077DD0120661ED4C700F900053E0F8
:100A3B00FCA3E0FDE41201F3120C0C900002E0FEAB
:100A4B00A3E0FF7C4E7D20120661ED4C6003020C8F
:100A5B000B90002EE0FEA3E0FF900053E0FCA3E020
:100A6B00FDD3ED9FEC9E5003020C0B7F047E001216
:100A7B001AD522900002E0FEA3E0FF7C077DD01286
:100A8B000661ED4C6003020C0BA285E433FCEC1207
:100A9B0001F8120C0C3085087FFF7E001218A6227D
:100AAB007F017EFF1218A622900002E0FEA3E0FF5A
:100ABB007C077DD0120661ED4C6003020C0BA28506
:100ACB00E433FCEC1201F8120C0C900002E0FEA3D4
:100ADB00E0FF7C4E7D20120661ED4C6003020C0B97
:100AEB00308503020C0B7F047E00121AD522900076
:100AFB002EE0FCA3E0FDEC1201F3120C0C90002E87
:100B0B00E0FEA3E0FF7B007A007DE87C03120E760B
:100B1B0090002EEEF0A3EFF0900002E0FEA3E0FFBA
:100B2B007C017DF4120661ED4C6003020C0B90000E
:100B3B002EE0FEA3E0FF12155C2290002EE0FEA338
:100B4B00E0FF7B007A007DE57C0F120E7690002E85
:100B5B00EEF0A3EFF0900053E0FCA3E0FDE41201F4
:100B6B00F3120C0C1215E1900053EEF0A3EFF09082
:100B7B00002EE0FEA3E0FF900053E0FCA3E0FDD3CA
:100B8B00ED9FEC9E40087FFF7E001218A6227F018E
:100B9B007EFF1218A62290002EE0FEA3E0FF7B0042
:100BAB007A007DE57C0F120E7690002EEEF0A3EF0F
:100BBB00F0900053E0FCA3E0FDE41201F3120C0CE7
:100BCB001215E1900053EEF0A3EFF0900002E0FE5F
:100BDB00A3E0FF7C007D05120661ED4C70229000B6
:100BEB002EE0FEA3E0FF900053E0FCA3E0FDD3ED6D
:100BFB009FEC9E400B7F047E00121AD522121EB56D
:100C0B002290000D120850900012E4F0900013E4B3
:100C1B00F09000147404F090001574FFF07F007EC8
:100C2B00007D007C0090000DE0F8A3E0F9A3E0FA52
:100C3B00A3E0FB12016450289000147403F09000A1
:100C4B0015E4F090000DE0FCA3E0FDA3E0FEA3E0B3
:100C5B00FF1201DD90000D12085090004F7401F04F
:100C6B0090000DE0FCA3E0FDA3E0FEA3E0FF120269
:100C7B002C9000161208507F007E007D007C0090A7
:100C8B000016E0F8A3E0F9A3E0FAA3E0FBC3120718
:100C9B00F770089000137401F0804D900013E4F08E
:100CAB00900013E0FFC3EF6480948A503B900016D2
:100CBB00E0FCA3E0FDA3E0FEA3E0FFEC4D4E4F6094
:100CCB0027900016E0FCA3E0FDA3E0FEA3E0FF7B72
:100CDB000A7A007900780012075790001612085014
:100CEB00900013E004F080B890001612085C00002E
:100CFB000001900011E4F0900013E0FF900014E06D
:100D0B00FEC3EE9FFF900011E0FEC3EF6480F8EE90
:100D1B006480985027900016E0FCA3E0FDA3E0FE52
:100D2B00A3E0FF7B0A7A00790078001206CC9000D2
:100D3B0016120850900011E004F080BB90000DE0FB
:100D4B00FCA3E0FDA3E0FEA3E0FFC004C005C006CA
:100D5B00C007900016E0FCA3E0FDA3E0FEA3E0FFBC
:100D6B00E41201EEA804A905AA06AB07D007D0062A
:100D7B00D005D00412005E90000D12085090000DAB
:100D8B00E0FCA3E0FDA3E0FEA3E0FF12022C900029
:100D9B00161208509000117403F0900015E0FF90AC
:100DAB000011E0FED3EF6480F8EE648098500302EC
:100DBB000E75900015E0FFEF3395E0FE900013E009
:100DCB00FDED3395E0FCED2FFFEC3EFE900011E0C6
:100DDB00FDED3395E0FCEFB50537EEB50433900030
:100DEB0011E0FFC0077B0A7A0079007800900016AB
:100DFB00E0FCA3E0FDA3E0FEA3E0FF120757AC006D
:100E0B00AD01AE02AF03AD07D0077B10121C88807B
:100E1B0031900011E0FFC0077B0A7A00790078005F
:100E2B00900016E0FCA3E0FDA3E0FEA3E0FF120799
:100E3B0057AC00AD01AE02AF03AD07D0077B00127C
:100E4B001C88900016E0FCA3E0FDA3E0FEA3E0FFEE
:100E5B007B0A7A0079007800120757900016120867
:100E6B0050900011E014F0020DA522900004EEF05A
:100E7B00A3EFF0900006ECF0A3EDF0900008EAF081
:100E8B00A3EBF090000AE4F090000B7401F09000DB
:100E9B0055E0FFEF641D6009900004E0FEA3E0FF46
:100EAB00227F647E0012190B900055E4F07F647E64
:100EBB000012190B90000BE0FFEF600D90000AE0A1
:100ECB00FFEF70057F00121D7990000AE0FFC3EF62
:100EDB0064809482400F900004E0FCA3E0FDEC12D0
:100EEB0001F3120C0C90000AE0FF04F0D3EF6480C6
:100EFB009485400590000AE4F0900055E0FFEF6404
:100F0B001D700302107B90000CE4F090000CE0FFCE
:100F1B00C3EF6480948A4003020FDC90000CE0FF67
:100F2B00EF3395E0FEEF25E0FFEE33FE74D42FF5A3
:100F3B0082741E3EF583E493FE740193FF9000557B
:100F4B00E0FD7C00ED6F7002EC6E707C900004E0B5
:100F5B00FEA3E0FF7C007D0A12064F90000CE0FD23
:100F6B00ED3395E0FCEF2DFFEE3CFE900006E0FC30
:100F7B00A3E0FDC3EF9DEC6480F8EE648098502FE6
:100F8B00900004E0FEA3E0FF7C007D0A12064F9068
:100F9B000004EEF0A3EFF090000CE0FFEF3395E0D0
:100FAB00FE900005E02FF0900004E03EF0800590ED
:100FBB00000BE4F0900055E4F0900004E0FCA3E09B
:100FCB00FDEC1201F3120C0C90000CE004F0020F7C
:100FDB0016900055E0FFEFB49D13900005E004F070
:100FEB007006900004E004F0900055E4F09000557A
:100FFB00E0FFEFB45730900008E0FEA3E0FF900055
:10100B0004E0FCA3E0FDD3ED9FEE6480F8EC64807C
:10101B0098400E900005E024FFF0900004E034FFB0
:10102B00F0900055E4F0900055E0FFEFB44F1390B3
:10103B000004E4F0A3E4F0900055E4F090000B748E
:10104B0001F0900055E0FFEF646F6003020EB89063
:10105B000004E0FEA3E0FF900057E0FDED25E02447
:10106B0030F582E43400F583EEF0A3EFF0020EB816
:10107B007FC87E0012190B900055E4F0900004E03D
:10108B00FEA3E0FF227F00121B22900029EEF0A3AB
:10109B00EFF0900029E0FEA3E0FFC3EF94E8EE949D
:1010AB0003500322800A900028E0FF900055EFF0D8
:1010BB007F01121B22900029EEF0A3EFF090002984
:1010CB00E0FEA3E0FFC3EF9458EE940250119000A2
:1010DB0028E0FF900055EFF09000567401F022903D
:1010EB000026E4F0900026E0FFEFC39404400302D7
:1010FB001188900026E0FF74222FF582E43400F56E
:10110B0083E4F0900027E4F0900027E0FFEFC39416
:10111B00085061900026E0FF74222FF582E4340022
:10112B00F583E0FFEF25E0FFEFF07F00121B22902D
:10113B000029EEF0A3EFF07F01121B22900029EEA5
:10114B00F0A3EFF0900029E0FEA3E0FFD3EF94961D
:10115B00EE94004017900026E0FF74222FF582E4F6
:10116B003400F583E0FFEF4401FFEFF0900027E040
:10117B0004F08094900026E004F00210EF9000251C
:10118B00E0FFEFF4FF900024E0FEEFB506047F01D3
:10119B0080027F00900023E0FEEEF4FE900022E040
:1011AB00FDEEB505047E0180027E00EE5FFFEF6071
:1011BB000A900025E0FF900028EFF0900028E0FF58
:1011CB00900055EFF0900056E4F0900055E0FFEFE3
:1011DB00B45D03121DF322900002E4F0121664902A
:1011EB000002EFF0900055E0FFEF643D600A9000C5
:1011FB0002E0FFEF6401703D900057E0FFEFC394F6
:10120B000F5008900057E004F08005900057E4F071
:10121B00900057E0FF121A267F027E00121AD51299
:10122B0013717FC87E0012190B7F007E00121AD536
:10123B00900055E4F0900055E0FFEF64DD600A90FC
:10124B000002E0FFEF6402703E900057E0FFEFD327
:10125B0094004008900057E014F0800690005774FB
:10126B000FF0900057E0FF121A267F027E00121A31
:10127B00D51213717FC87E0012190B7F007E0012EE
:10128B001AD5900055E4F0900055E0FFEFB45D17D0
:10129B00900057E0FF121A267FE87E0312190B907D
:1012AB000055E4F0121DF3900055E0FFEFB4FD0381
:1012BB00121DA722C0E0C083C082C0D075D000C071
:1012CB0000C007D280D281D283D28490004EE0FF3F
:1012DB00EF1208AD12EF00130D01132B021349038C
:1012EB000000136490004EE0FF744F2FF582E4343E
:1012FB0000F583E0FF121C45C28090004E7401F094
:10130B00805790004EE0FF744F2FF582E43400F5C8
:10131B0083E0FF121C45C28190004E7402F08039AD
:10132B0090004EE0FF744F2FF582E43400F583E01C
:10133B00FF121C45C28390004E7403F0801B90007B
:10134B004EE0FF744F2FF582E43400F583E0FF127B
:10135B001C45C28490004EE4F0D007D000D0D0D012
:10136B0082D083D0E032900057E0FFEF25E02430AD
:10137B00F582E43400F583E0FEA3E0FF90002EEE4F
:10138B00F0A3EFF0900057E0FFEF1208AD13BA0097
:10139B0013C40113CB0213CF0313DD0413E40513A2
:1013AB00F20613F9071406081413090000141C1293
:1013BB001E4C121E1612141D22121E16121EA922CC
:1013CB00121E1622121E4C7F007E001218A6121E31
:1013DB001622121E4C121E5D22121E4C7F007E0026
:1013EB001218A6121E5D22121DCD121E8F22121E66
:1013FB004C121EA9121DCD121D0822121E4C121EBC
:10140B00A9121DCD121D0822121DCD121E8F121EE8
:10141B009C2290000512085C0001C20053B1BF531F
:10142B00B2BF53B17F53B27F75985243878053C479
:10143B00F843C420900005E0F8A3E0F9A3E0FAA379
:10144B00E0FB7F407E427D0F7C00120757A804A96A
:10145B0005AA06AB07C374FF9BFF74FF9AFEE499C2
:10146B00FDE498FC78081208088FC6900005E0F898
:10147B00A3E0F9A3E0FAA3E0FB7F407E427D0F7C63
:10148B0000120757A804A905AA06AB07C374FF9B54
:10149B00FF74FF9AFEE499FDE498FCEF54FFFFEE16
:1014AB005400FEED5400FDEC5400FC8FC543C40802
:1014BB00D299D2ACD2AF22787FE4F6D8FD9000005F
:1014CB007FFF7E03E4F0A3DFFCDEFA7581200215BB
:1014DB001702183FE493A3F8E493A34003F68001AB
:1014EB00F208DFF48029E493A3F85407240CC8C353
:1014FB0033C4540F4420C8834004F456800146F68D
:10150B00DFE4800B0102040810204080901E36E4BB
:10151B007E019360BCA3FF543F30E509541FFEE4EA
:10152B0093A360010ECF54C025E060A840B8E493AC
:10153B00A3FAE493A3F8E493A3C8C582C8CAC583EE
:10154B00CAF0A3C8C582C8CAC583CADFE9DEE78073
:10155B00BE900004EEF0A3EFF053B1DF43B220A234
:10156B00AF9200C2AF75C7AA75C75543910143C669
:10157B000475C7AA75C7555391FEA20092AF53DFEE
:10158B003F43DF07900004E0FEA3E0FFEF54FFF5BD
:10159B00D9900004E0FEA3E0FFEEFF7E008FD19018
:1015AB000004E0FEA3E0FFEEC313FEEF13FF900079
:1015BB0004EEF0A3EFF0900004E0FEA3E0FFEF5485
:1015CB00FFF5DC900004E0FEA3E0FFEEFF7E008F52
:1015DB00D4D2DED2DF22D28612003EC286900059D0
:1015EB00E4F053E97F53EA7F43EB80439B027F6434
:1015FB007E0012190B900059E0FFEF64027051AF9F
:10160B008C7E00900004EEF0A3EFF0900004E0FE5F
:10161B00A3E0FFEF7F00FE900004EEF0A3EFF0904D
:10162B000004E0FEA3E0FFAD8B7C00EE4CFEEF4D23
:10163B00FF900004EEF0A3EFF0900004E0FEA3E0B7
:10164B00FF7C007D3A120661900004EEF0A3EFF0F0
:10165B00900004E0FEA3E0FF2290000312085C0060
:10166B00000000121D41900007EFF0900007E0FF13
:10167B00EF64036034121D41EF640360067B01C00D
:10168B000380047B00C00390000312081B7B107ABD
:10169B002779007800D31207F740047F0180027F7F
:1016AB0000D003EF5BFFEF70CC7F107E277D007CBB
:1016BB0000900003E0F8A3E0F9A3E0FAA3E0FBC37A
:1016CB001207F7400E900007E0FFEF4480FF9000F9
:1016DB0007EFF0900007E0FF22900004E4F0900089
:1016EB0004E0FFC3EF6480948A5069900004E0FF2C
:1016FB00EF3395E0FEEF25E0FFEE33FE74D42FF5CC
:10170B0082741E3EF583E493FE740193FF900055A3
:10171B00E0FD7C00ED6F7002EC6E7030900004E029
:10172B00FF900057EFF0900055E4F0900057E0FF6A
:10173B00121A267F027E00121AD51213717FC87EF1
:10174B000012190B7F007E00121AD522900004E0C4
:10175B0004F0808A22C0E0C083C082C0D075D00064
:10176B00C006C00730984D121DF3C29890001DE5BE
:10177B0099F090001DE0FFEFB4AE047F0180027F73
:10178B000090001DE0FEEEB4A4047E0180027E00FA
:10179B00EE4FFFEF6013900058E0FFEFB40203121F
:1017AB001DF3900058E4F0800B90001DE0FF9000BB
:1017BB0058E02FF0309902C299D007D006D0D0D084
:1017CB0082D083D0E032C0E0C083C082C0D075D05D
:1017DB0000C000C004C005C006C007C2EFAFC37E87
:1017EB0000900053EEF0A3EFF0900053E0FEA3E067
:1017FB00FFEFC4F8540FC868FFEEC454F048FE90D6
:10180B000053EEF0A3EFF0900053E0FEA3E0FFAD2A
:10181B00C27C00EE4CFEEF4DFF900053EEF0A3EFB9
:10182B00F0D007D006D005D004D000D0D0D082D0D5
:10183B0083D0E03212141D75B10075B10075B30081
:10184B0075B40075AC0075AD00D2AF121E4C121EF4
:10185B007F900055E0FF7E001219CA7F007E0012B8
:10186B0018A67F047E00121AD57FE87E0312190B8F
:10187B007F007E00121AD51211E2900000E0FEA349
:10188B00E0FF1208D37FAA120026900001E004F0BB
:10189B007006900000E004F080DD22900005EEF071
:1018AB00A3EFF043DE0243DE0153DF3F43DF077557
:1018BB00D10075D9FF75D20075D300900005E0FEFD
:1018CB00A3E0FFC3EE64809480400D900005E0FE22
:1018DB00A3E0FF8FDA75DB00900005E0FEA3E0FFCD
:1018EB00D3EF9400EE64809480501075DA00900072
:1018FB0005E0FEA3E0FFEFF404F5DBD2DED2DF223E
:10190B0090000DEEF0A3EFF090000F12085C0000BA
:10191B00000090000DE0FEA3E0FFE4FCFD90000F43
:10192B00E0F8A3E0F9A3E0FAA3E0FBC31207F7503A
:10193B00317F647E0012196E90000FE0FCA3E0FD76
:10194B00A3E0FEA3E0FF7B017A0079007800EF2B88
:10195B00FFEE3AFEED39FDEC38FC90000F1208500B
:10196B0080B022900013EEF0A3EFF0900015120858
:10197B005C00000000900013E0FEA3E0FFE4FCFD20
:10198B00900015E0F8A3E0F9A3E0FAA3E0FBC31283
:10199B0007F7502A900015E0FCA3E0FDA3E0FEA39F
:1019AB00E0FF7B017A0079007800EF2BFFEE3AFE27
:1019BB00ED39FDEC38FC90001512085080B72290E1
:1019CB000002EEF0A3EFF0900004E4F0900004E0CE
:1019DB00FFC3EF648094845041900004E0FFC37414
:1019EB00039FFFC007900002E0FEA3E0FF7C007D99
:1019FB000A120661D0077B00121C88900002E0FEE1
:101A0B00A3E0FF7C007D0A120661900002EEF0A3BA
:101A1B00EFF0900004E004F080B222900005EFF0AC
:101A2B0090004F7464F09000507401F0900005E04A
:101A3B00FFEF75F00A84FFEF25E024C0F582E43454
:101A4B001EF583E493FE740193FF900051EFF09029
:101A5B000005E0FFEF75F00A84AFF0EF25E024C03E
:101A6B00F582E4341EF583E493FE740193FF90003A
:101A7B0052EFF022C0E0C083C082C0D075D000C04E
:101A8B0000C00775EC00900059E0FFEF1208AD1A8B
:101A9B00A4001ABD0100001AC8758A00758C00D20B
:101AAB008C53E97F43EA8053EB7F9000597401F02C
:101ABB00800BC28C539BFD9000597402F0D007D061
:101ACB0000D0D0D082D083D0E032900005EEF0A3CE
:101ADB00EFF053B3F743B40853B3EF43B410D293BF
:101AEB007FE87E0312196EC2937FE87E0312196E94
:101AFB0090000574FF75F0FF1206B6AFF0FEEF4EC7
:101B0B006014D2947FE87E0312196EC2947FE87E34
:101B1B000312196E80DA2290002BEFF090002CE468
:101B2B00F0A3E4F0A2B0E433FF90002BE0FEEFB59E
:101B3B0006047F0180027F0090002CE475F00112F7
:101B4B0006B6ADF0FCC3ED94D0EC940750047E01C7
:101B5B0080027E00EE5FFFEF70CA90002CE0FEA3C8
:101B6B00E0FF22900005EFF0900006E4F0900006F5
:101B7B00E0FFEFC39408502CC287900005E0FFEF05
:101B8B0030E004D2868002C286000000D28790002B
:101B9B0005E0FFEFC313FF900005EFF0900006E0A8
:101BAB0004F080C9C28700000000C286000022C07A
:101BBB00E0C0F0C083C082C0D075D000C000C001AF
:101BCB00C002C003C004C005C006C007900020E4DB
:101BDB00F0A3E4F0C2AF121090D2AFD007D006D072
:101BEB0005D004D003D002D001D000D0D0D082D009
:101BFB0083D0F0D0E032900004EEF0A3EFF0900031
:101C0B000474FF75F0FF1206B6AFF0FEEF4E6029BD
:101C1B00900006E4F0A3E4F0900006E0FEA3E0FFE2
:101C2B00C3EF9426EE940250D5900007E004F070B9
:101C3B0006900006E004F080DF2290001EEFF0C259
:101C4B009590001FE4F090001FE0FFEFC394085045
:101C5B002990001EE0FFEF30E004D2968002C2967E
:101C6B00C29790001EE0FFEFC313FF90001EEFF032
:101C7B00D29790001FE004F080CCD2952290001AEE
:101C8B00EFF090001BEDF090001CEBF090001BE0D0
:101C9B00FFEF25E024C0F582E4341EF583E493FEC8
:101CAB00740193FF90001CE0FEEF4EFF90001AE0D2
:101CBB00FE744F2EF582E43400F583EFF022120010
:101CCB00067F40121B6E121E6E1200067FC0121B87
:101CDB006E900004E4F0900004E0FFEFC39410500A
:101CEB000D7FFF121B6E900004E004F080E8121EC3
:101CFB006E1200067F8C121B6E121E6E2243B18079
:101D0B0053B27FA2AF920075C7AA75C755759101E3
:101D1B0043B18075C7AA75C755759100A20092AFE4
:101D2B0053E97F53EA7F43EB8053B1BF43B2405338
:101D3B0089F043890122900008E4F043B580D2A0DA
:101D4B0030A00E900008E0FFEF4401FF900008EF79
:101D5B00F0C2A0D29030900E900008E0FFEF44024A
:101D6B00FF900008EFF0C290900008E0FF22900077
:101D7B000DEFF090000DE0FF90004FEFF090000D95
:101D8B00E0FF900050EFF090000DE0FF900051EF5E
:101D9B00F090000DE0FF900052EFF0227FC87E0024
:101DAB0012190B900055E4F0900055E0FFEFB4FDD5
:101DBB00F7800280F37F647E0012190B900055E4CC
:101DCB00F022A2AF9200C2AF75C7AA75C755439157
:101DDB000153C6FB75C7AA75C7555391FEA2009256
:101DEB00AF53B1DF53B2DF2275C7AA75C755439FF7
:101DFB000275C7AA75C755A2AF9200C2AF75C7AA25
:101E0B0075C755439F80A20092AF2243B12053B2B6
:101E1B00DF53E8F043E80443B12053B2DF75F6001B
:101E2B0043F61043E101D2AED2AF2241005700413D
:101E3B00005800410055004100560042002E0000A2
:101E4B000053890F438920758D00758B00D2ABD25F
:101E5B008E2253B1DF53B2DF53E8F075F600C2AEFA
:101E6B00D28522D2870000C2860000D2860000C233
:101E7B0087C2862243AC0153ADFE53E9FBD2B0C2FD
:101E8B008AD2A82253B1BF53B2BF53B17F53B27F93
:101E9B002243B14043B24043B18043B28022759894
:101EAB000053877FC29953C4F722121CC97FE87E67
:101EBB0003121C012200EE000A00E900AB000F0028
:101ECB00A700E7008A00EF00AF006700CF00E70034
:0D1EDB008500EF00C700A500BD00B500ADFB
:00000001FF
