:03000B00020003ED
:06000300758ACEB29232B4
:03001B0002000ED2
:06000E00758C9CB29132DA
:10014F00E4F5B1F5B1F5B3F5B4F5ACF5AD53890FF1
:10015F0043893F5389F04389F3758C9C758ACEF59B
:10016F008DF58BD2A9D2ABD2AFD28CD28E858D909A
:05017F00858BA080F853
:10018400538EF7438901D28CEF4E6012758AF37552
:100194008CFF308DFDC28DEF1F70ED1E80EAC28C86
:0101A4002238
:1000B9008F0B8E0A8D098C08538EF7438901D28CD8
:1000C900E4FFFEFDFCAB0BAA0AA909A808C31201AB
:1000D900BF6025758ACA758CFA308DFDC28DE50B16
:1000E90024FFF50BE50A34FFF50AE50934FFF509A4
:0B00F900E50834FFF50880C8C28C2227
:100104008F0F8E0E8D0D8C0C538EEF438910D28E73
:10011400E4FFFEFDFCAB0FAA0EA90DA80CC312014F
:10012400BF6025758BCA758DFA308FFDC28FE50FC0
:1001340024FFF50FE50E34FFF50EE50D34FFF50D44
:0B014400E50C34FFF50C80C8C28E22D1
:10001E008F138E128D118C1053C9BF53C9DF43C974
:10002E0010D2CAE4FFFEFDFCAB13AA12A911A81050
:10003E00C31201BF602575CC6075CDF030CFFDC207
:10004E00CFE51324FFF513E51234FFF512E5113455
:0E005E00FFF511E51034FFF51080C8C2CA226C
:10006C008F178E168D158C1475C40243C408E4FFCB
:10007C00FEFDFCAB17AA16A915A814C31201BF608C
:10008C002875C56075C6F0E5C430E4FB53C4EFE5D4
:10009C001724FFF517E51634FFF516E51534FFF5B3
:0D00AC0015E51434FFF51480C553C4F72288
:030000000201A555
:1001A500787FE4F6D8FD9000007FFF7E03E4F0A39E
:0A01B500DFFCDEFA75812002014F25
:1001BF00EB9FF5F0EA9E42F0E99D42F0E89C45F096
:0101CF00220D
:00000001FF
