:03000B0002000EE2
:09000E0085088C850A8AB2923241
:03001B000201DB04
:0901DB0085098D850B8BB283327E
:10014F00E4F5B1F5B1F5B3F5B4F5ACF5AD53890FF1
:10015F004389105389F0438901538EEF75083C751D
:10016F000AB075099E750B5885088C850A8A850912
:10017F008D850B8BD2A9D2ABD2AFD28CD28E80FE13
:10018F00538EF7438901D28CEF4E6012758AF37547
:10019F008CFF308DFDC28DEF1F70ED1E80EAC28C7B
:0101AF00222D
:1000B9008F0F8E0E8D0D8C0C538EF7438901D28CC8
:1000C900E4FFFEFDFCAB0FAA0EA90DA80CC312019B
:1000D900CA6025758ACA758CFA308DFDC28DE50F07
:1000E90024FFF50FE50E34FFF50EE50D34FFF50D90
:0B00F900E50C34FFF50C80C8C28C221F
:100104008F138E128D118C10538EEF438910D28E63
:10011400E4FFFEFDFCAB13AA12A911A810C312013F
:10012400CA6025758BCA758DFA308FFDC28FE513B1
:1001340024FFF513E51234FFF512E51134FFF51130
:0B014400E51034FFF51080C8C28E22C9
:10001E008F178E168D158C1453C9BF53C9DF43C964
:10002E0010D2CAE4FFFEFDFCAB17AA16A915A81440
:10003E00C31201CA602575CC6075CDF030CFFDC2FC
:10004E00CFE51724FFF517E51634FFF516E5153441
:0E005E00FFF515E51434FFF51480C8C2CA2260
:10006C008F1B8E1A8D198C1875C40243C408E4FFBB
:10007C00FEFDFCAB1BAA1AA919A818C31201CA6071
:10008C002875C56075C6F0E5C430E4FB53C4EFE5D4
:10009C001B24FFF51BE51A34FFF51AE51934FFF59F
:0D00AC0019E51834FFF51880C553C4F7227C
:030000000201B04A
:1001B000787FE4F6D8FD9000007FFF7E03E4F0A393
:0A01C000DFFCDEFA75812002014F1A
:1001CA00EB9FF5F0EA9E42F0E99D42F0E89C45F08B
:0101DA002202
:00000001FF
