:1001600075B10075B10075B30075B40075AC00755C
:10017000AD00438E02C2927FF47E017D007C0012AE
:1001800000B4D2927FF47E017D007C001200B48026
:02019000E42267
:100192008E188F19538EF7438901D28CE5194518B1
:1001A2006015758AF3758CFF308DFDC28DE51915CA
:0A01B200197002151880E5C28C22B6
:1000B4008F0B8E0A8D098C08538EF7438901D28CDD
:1000C4007F007E007D007C00AB0BAA0AA909A8086A
:1000D400C31201D6602D758ACA758CFA308DFDC2A3
:1000E4008DAF0BAE0AAD09AC087BFF7AFF79FF78C0
:1000F400FFEF2BF50BEE3AF50AED39F509EC38F57F
:060104000880BDC28C2240
:10010A008F0F8E0E8D0D8C0C538EEF438910D28E6D
:10011A007F007E007D007C00AB0FAA0EA90DA80C03
:10012A00C31201D6602D758BCA758DFA308FFDC248
:10013A008FAF0FAE0EAD0DAC0C7BFF7AFF79FF7857
:10014A00FFEF2BF50FEE3AF50EED39F50DEC38F51C
:06015A000C80BDC28E22E4
:100003008F138E128D118C1053C9BF53C9DF43C98F
:1000130010D2CA7F007E007D007C00AB13AA12A918
:1000230011A810C31201D6602D75CC6075CDF030C8
:10003300CFFDC2CFAF13AE12AD11AC107BFF7AFF71
:1000430079FF78FFEF2BF513EE3AF512ED39F51141
:09005300EC38F51080BDC2CA2290
:10005C008F178E168D158C1475C40243C4087F003F
:10006C007E007D007C00AB17AA16A915A814C3123C
:10007C0001D6603075C56075C6F0E5C430E4FB533D
:10008C00C4EFAF17AE16AD15AC147BFF7AFF79FF3A
:10009C0078FFEF2BF517EE3AF516ED39F515EC3830
:0800AC00F51480BA53C4F722D9
:030000000201BC3E
:1001BC00787FE4F6D8FD9000007FFF7E03E4F0A387
:0A01CC00DFFCDEFA758120020160FD
:1001D600EB9FF5F0EA9E42F0E99D42F0E89C45F07F
:0101E60022F6
:00000001FF
