:08041400020A0000021C0000B6
:03002300020403D1
:10040300309808C298859908850899309902C2994D
:0104130032B6
:1000030053B1BF53B2BF53B17F53B27F7FC07E1290
:0D0013007D007C001201B2D2ACD2AF80FEA5
:1003AB0053B1BF53B2BF53B17F53B27F7598524312
:1003BB008920438780438E1053C4DFAB07AA06A95D
:1003CB0005A8047F407E427D0F7C00120062EF0483
:0703DB00F404F58DD28E221F
:1001B2008F258E248D238C2253B1BF53B2BF53B1EE
:1001C2007F53B27F75985243878053C4F843C4204B
:1001D200AB25AA24A923A8227F407E427D0F7C0062
:1001E200120062C374FF9FFF74FF9EFEE49DFDE454
:1001F2009CFC78081201058FC6AB25AA24A923A866
:10020200227F407E427D0F7C00120062C374FF9FFA
:07021200FF8FC543C4082261
:07041D003098FDAF99C29871
:0104240022B5
:08042500C2998F993099FD2264
:100219008F298E288D278C2653B1FB53B2FB53B3FC
:10022900BF53B4BF75F85253C4F8AB29AA28A927FC
:10023900A8267F407E427D0F7C00120062C374FFB6
:100249009FFF74FF9EFEE49DFDE49CFC780812016B
:10025900058FC6AB29AA28A927A8267F407E427DFB
:100269000F7C00120062C374FF9FFF8FC543C4084F
:010279002262
:07042D0030F8FDAF9AC2F8A0
:0104340022A5
:08043500C2F98F9A30F9FD2293
:1003E200538EF7438901D28CEF4E6012758AF375F2
:1003F2008CFF308DFDC28DEF1F70ED1E80EAC28C26
:0104020022D7
:100315008F2D8E2C8D2B8C2A538EF7438901D28CF1
:10032500E4FFFEFDFCAB2DAA2CA92BA82AC31200C5
:10033500F46025758ACA758CFA308DFDC28DE52D60
:1003450024FFF52DE52C34FFF52CE52B34FFF52B9B
:0B035500E52A34FFF52A80C8C28C2284
:100360008F318E308D2F8C2E538EEF438910D28E8D
:10037000E4FFFEFDFCAB31AA30A92FA82EC312006A
:10038000F46025758BCA758DFA308FFDC28FE5310B
:1003900024FFF531E53034FFF530E52F34FFF52F3C
:0B03A000E52E34FFF52E80C8C28E222F
:10027A008F358E348D338C3253C9BF53C9DF43C98E
:10028A0010D2CAE4FFFEFDFCAB35AA34A933A8326A
:10029A00C31200F4602575CC6075CDF030CFFDC275
:1002AA00CFE53524FFF535E53434FFF534E533344D
:0E02BA00FFF533E53234FFF53280C8C2CA22A8
:1002C8008F398E388D378C3675C40243C408E4FFE5
:1002D800FEFDFCAB39AA38A937A836C31200F46072
:1002E8002875C56075C6F0E5C430E4FB53C4EFE576
:1002F8003924FFF539E53834FFF538E53734FFF5AB
:0D03080037E53634FFF53680C553C4F722C3
:03000000020118E2
:10011800787FE4F6D8FD9000007FFF7E03E4F0A32B
:0A012800DFFCDEFA75813902016D7B
:10013200020003E493A3F8E493A34003F68001F2E0
:1001420008DFF48029E493A3F85407240CC8C333CE
:10015200C4540F4420C8834004F456800146F6DF9D
:10016200E4800B0102040810204080900414E47E15
:10017200019360BCA3FF543F30E509541FFEE49392
:10018200A360010ECF54C025E060A840B8E493A359
:10019200FAE493A3F8E493A3C8C582C8CAC583CA84
:1001A200F0A3C8C582C8CAC583CADFE9DEE780BE3C
:01041C0000DF
:1000260075F008758200EF2FFFEE33FECD33CDCC91
:1000360033CCC58233C5829BED9AEC99E582984014
:100046000CF582EE9BFEED9AFDEC99FC0FD5F0D6F1
:10005600E4CEFBE4CDFAE4CCF9A88222B800C1B91B
:100066000059BA002DEC8BF084CFCECDFCE5F0CB59
:10007600F97818EF2FFFEE33FEED33FDEC33FCEB92
:1000860033FB10D703994004EB99FB0FD8E5E4F94D
:10009600FA227818EF2FFFEE33FEED33FDEC33FC3A
:1000A600C933C910D7059BE99A4007EC9BFCE99A2E
:1000B600F90FD8E0E4C9FAE4CCFB2275F010EF2F73
:1000C600FFEE33FEED33FDCC33CCC833C810D70773
:1000D6009BEC9AE899400AED9BFDEC9AFCE899F8AE
:0E00E6000FD5F0DAE4CDFBE4CCFAE4C8F92241
:1000F400EB9FF5F0EA9E42F0E99D42F0E89C45F062
:0101040022D8
:10010500E8600FECC313FCED13FDEE13FEEF13FFD8
:03011500D8F122FC
:00000001FF
