:1001E100AD07AF06A2AF9200BF010BC2AF75C7AAA0
:1001F10075C75543F91075C7AA75C7558DFAA20081
:0202010092AFBA
:0102030022D8
:10000300E4F5B1F5B1F5B3F5B4F5ACF5AD43DE0107
:1000130043DE0243DE10A2AF9200C2AF75C7AA75DA
:10002300C75543910143C62075C7AA75C755539158
:10003300FEA20092AF43DF4053DF7F43DF0353DF72
:10004300FB75D10775D9CF75D20375DACFA2AF92FD
:1000530000C2AF75C7AA75C755439101A20092AFFD
:1000630075C40175CCCFA2AF9200C2AF75C7AA7594
:10007300C7555391FEA20092AFA2AF9200C2AF75D3
:10008300C7AA75C75543F901A20092AFA2AF920068
:10009300C2AF75C7AA75C75543F904A20092AF7FD3
:0D00A300FF7E011201E1D2DED2DF80FE22DD
:10020400538EF7438901D28CEF4E6012758AF375D1
:100214008CFF308DFDC28DEF1F70011E80EAC28CF1
:0102240022B7
:10014B008F0B8E0A8D098C08538EF7438901D28C45
:10015B00E4FFFEFDFCAB0BAA0AA909A808C3120217
:10016B003F6025758ACA758CFA308DFDC28DE50B03
:10017B0024FFF50BE50A34FFF50AE50934FFF50911
:0B018B00E50834FFF50880C8C28C2294
:100196008F0F8E0E8D0D8C0C538EEF438910D28EE1
:1001A600E4FFFEFDFCAB0FAA0EA90DA80CC31202BC
:1001B6003F6025758BCA758DFA308FFDC28FE50FAE
:1001C60024FFF50FE50E34FFF50EE50D34FFF50DB2
:0B01D600E50C34FFF50C80C8C28E223F
:1000B0008F138E128D118C1053C9BF53C9DF43C9E2
:1000C00010D2CAE4FFFEFDFCAB13AA12A911A810BE
:1000D000C312023F602575CC6075CDF030CFFDC2F4
:1000E000CFE51324FFF513E51234FFF512E51134C3
:0E00F000FFF511E51034FFF51080C8C2CA22DA
:1000FE008F178E168D158C1475C40243C408E4FF39
:10010E00FEFDFCAB17AA16A915A814C312023F6078
:10011E002875C56075C6F0E5C430E4FB53C4EFE541
:10012E001724FFF517E51634FFF516E51534FFF520
:0D013E0015E51434FFF51480C553C4F722F5
:03000000020225D4
:10022500787FE4F6D8FD9000007FFF7E03E4F0A31D
:0A023500DFFCDEFA758120020003F1
:10023F00EB9FF5F0EA9E42F0E99D42F0E89C45F015
:01024F00228C
:00000001FF
