:10018200A2AF9200C2AF75C7AA75C755439F01A21D
:100192000092AF8FA6E4F5A775AF04A2AF9200C29A
:1001A200AF75C7AA75C75543A401A20092AFAFAEFF
:1001B200A2AF9200C2AF75C7AA75C755539FFEA2E0
:0301C2000092AFF9
:0101C5002217
:10000300E4F5B1F5B1F5B3F5B4F5ACF5ADC2927F56
:1000130064FEFDFC1200ECD2927F647E007D007CC6
:10002300001200ECC2927F647E007D007C0012000F
:10003300ECD2927F647E007D007C001200EC7F0294
:0E0043001201828F087F051201828F0980FE54
:030000000201E713
:1001E700787FE4F6D8FD9000007FFF7E03E4F0A35C
:0A01F700DFFCDEFA75812002000330
:1001C600538EF7438901D28CEF4E6012758AF37510
:1001D6008CFF308DFDC28DEF1F70ED1E80EAC28C44
:0101E60022F6
:1000EC008F0D8E0C8D0B8C0A538EF7438901D28C9D
:1000FC00E4FFFEFDFCAB0DAA0CA90BA80AC312026F
:10010C00016025758ACA758CFA308DFDC28DE50D9E
:10011C0024FFF50DE50C34FFF50CE50B34FFF50B66
:0B012C00E50A34FFF50A80C8C28C22EF
:100137008F118E108D0F8C0E538EEF438910D28E38
:10014700E4FFFEFDFCAB11AA10A90FA80EC3120213
:10015700016025758BCA758DFA308FFDC28FE51149
:1001670024FFF511E51034FFF510E50F34FFF50F07
:0B017700E50E34FFF50E80C8C28E229A
:100051008F158E148D138C1253C9BF53C9DF43C939
:1000610010D2CAE4FFFEFDFCAB15AA14A913A81215
:10007100C3120201602575CC6075CDF030CFFDC291
:10008100CFE51524FFF515E51434FFF514E5133418
:0E009100FFF513E51234FFF51280C8C2CA2233
:10009F008F198E188D178C1675C40243C408E4FF90
:1000AF00FEFDFCAB19AA18A917A816C3120201600E
:1000BF002875C56075C6F0E5C430E4FB53C4EFE5A1
:1000CF001924FFF519E51834FFF518E51734FFF576
:0D00DF0017E51634FFF51680C553C4F7224F
:10020100EB9FF5F0EA9E42F0E99D42F0E89C45F053
:0102110022CA
:00000001FF
