:030063000201B8DF
:0C01B8005392FE85E49085E5A0B29232DF
:10014900E4F5B1F5B1F5B3F5B4F5ACF5AD43C801D6
:1001590053C97F43C9044392104393305393BF4318
:10016900941053F1F043F103439B80439B04D2CA9B
:04017900D2AF80FE83
:10017D00538EF7438901D28CEF4E6012758AF37559
:10018D008CFF308DFDC28DEF1F70ED1E80EAC28C8D
:01019D00223F
:1000B3008F0B8E0A8D098C08538EF7438901D28CDE
:1000C300E4FFFEFDFCAB0BAA0AA909A808C31200B2
:1000D300516025758ACA758CFA308DFDC28DE50B8A
:1000E30024FFF50BE50A34FFF50AE50934FFF509AA
:0B00F300E50834FFF50880C8C28C222D
:1000FE008F0F8E0E8D0D8C0C538EEF438910D28E7A
:10010E00E4FFFEFDFCAB0FAA0EA90DA80CC3120056
:10011E00516025758BCA758DFA308FFDC28FE50F34
:10012E0024FFF50FE50E34FFF50EE50D34FFF50D4A
:0B013E00E50C34FFF50C80C8C28E22D7
:100003008F138E128D118C1053C9BF53C9DF43C98F
:1000130010D2CAE4FFFEFDFCAB13AA12A911A8106B
:10002300C3120051602575CC6075CDF030CFFDC291
:10003300CFE51324FFF513E51234FFF512E5113470
:0E004300FFF511E51034FFF51080C8C2CA2287
:100066008F178E168D158C1475C40243C408E4FFD1
:10007600FEFDFCAB17AA16A915A814C31200516001
:100086002875C56075C6F0E5C430E4FB53C4EFE5DA
:100096001724FFF517E51634FFF516E51534FFF5B9
:0D00A60015E51434FFF51480C553C4F7228E
:0300000002019E5C
:10019E00787FE4F6D8FD9000007FFF7E03E4F0A3A5
:0A01AE00DFFCDEFA75812002014932
:10005100EB9FF5F0EA9E42F0E99D42F0E89C45F005
:01006100227C
:00000001FF
