:10000300E4F5B1F5B1F5B3F5B4F5ACF5AD43DE0107
:1000130053DEFB43DE1043DE2053DF3F43DF035356
:10002300DFFB75D10775D9CFF5D275DACF75D4015A
:1000330075DCCFA2AF9200C2AF75C7AA75C755438F
:100043009101A20092AF75C40375CCCF75C5057538
:10005300CDCFA2AF9200C2AF75C7AA75C755539152
:0F006300FEA20092AF43D604D2DED2DF80FE228F
:1001A300538EF7438901D28CEF4E6012758AF37533
:1001B3008CFF308DFDC28DEF1F70011E80EAC28C53
:0101C3002219
:10010D008F0B8E0A8D098C08538EF7438901D28C83
:10011D00E4FFFEFDFCAB0BAA0AA909A808C3120156
:10012D00DE6025758ACA758CFA308DFDC28DE50BA2
:10013D0024FFF50BE50A34FFF50AE50934FFF5094F
:0B014D00E50834FFF50880C8C28C22D2
:100158008F0F8E0E8D0D8C0C538EEF438910D28E1F
:10016800E4FFFEFDFCAB0FAA0EA90DA80CC31201FB
:10017800DE6025758BCA758DFA308FFDC28FE50F4D
:1001880024FFF50FE50E34FFF50EE50D34FFF50DF0
:0B019800E50C34FFF50C80C8C28E227D
:100072008F138E128D118C1053C9BF53C9DF43C920
:1000820010D2CAE4FFFEFDFCAB13AA12A911A810FC
:10009200C31201DE602575CC6075CDF030CFFDC294
:1000A200CFE51324FFF513E51234FFF512E5113401
:0E00B200FFF511E51034FFF51080C8C2CA2218
:1000C0008F178E168D158C1475C40243C408E4FF77
:1000D000FEFDFCAB17AA16A915A814C31201DE6019
:1000E0002875C56075C6F0E5C430E4FB53C4EFE580
:1000F0001724FFF517E51634FFF516E51534FFF55F
:0D01000015E51434FFF51480C553C4F72233
:030000000201C436
:1001C400787FE4F6D8FD9000007FFF7E03E4F0A37F
:0A01D400DFFCDEFA75812002000353
:1001DE00EB9FF5F0EA9E42F0E99D42F0E89C45F077
:0101EE0022EE
:00000001FF
