:10065B00E4F5B1F5B1F5B3F5B4F5ACF5ADFF7EC28C
:10066B007D01FC12059C53E8F043E80443B1205391
:10067B00B2DFE4F5F643F61043E10143E80853E833
:10068B00F843E101C2EFD2EE30EFFDAFC312000B26
:10069B007FE87E037D007C001207466390FF80E4B9
:0400130041000000A8
:10059C008F3F8E3E8D3D8C3C53B1BF53B2BF53B198
:1005AC007F53B27F75985243878053C4F843C4205D
:1005BC00AB3FAA3EA93DA83C7F407E427D0F7C000C
:1005CC001203BEC374FF9FFF74FF9EFEE49DFDE407
:1005DC009CFC78081204618FC6AB3FAA3EA93DA8CB
:1005EC003C7F407E427D0F7C001203BEC374FF9F94
:0D05FC00FF8FC543C408D299D2ACD2AF2204
:070003003098FDAF99C2988F
:01000A0022D3
:08000B00C2998F993099FD2282
:030018000200885B
:1008030075C7AA75C755439F0275C7AA75C755A271
:10081300AF9209C2AF75C7AA75C755439F80A20996
:0308230092AF226F
:03002300020609C9
:10060900C0E0C083C082C0D075D000C005C006C09C
:0106190007D9
:10061A0030982AC298AF99BFAE047E0180027E004C
:10062A00BFA4047D0180027D00ED4E600A1208031A
:10063A00900000E4F08006900000E02FF03099026C
:02064A00C29953
:0F064C00D007D006D005D0D0D082D083D0E032F6
:10082600538EF7438901D28CEF4E6012758AF375A9
:100836008CFF308DFDC28DEF1F70ED1E80EAC28CDD
:01084600228F
:100746008F3F8E3E8D3D8C3C538EF7438901D28C74
:10075600E4FFFEFDFCAB3FAA3EA93DA83CC3120444
:10076600506025758ACA758CFA308DFDC28DE53FBD
:1007760024FFF53FE53E34FFF53EE53D34FFF53D0C
:0B078600E53C34FFF53C80C8C28C222B
:100791008F1F8E1E8D1D8C1C538EEF438910D28EA0
:1007A100E4FFFEFDFCAB1FAA1EA91DA81CC3120479
:1007B100506025758BCA758DFA308FFDC28FE51F8C
:1007C10024FFF51FE51E34FFF51EE51D34FFF51D61
:0B07D100E51C34FFF51C80C8C28E221E
:1006AB008F378E368D358C3453C9BF53C9DF43C951
:1006BB0010D2CAE4FFFEFDFCAB37AA36A935A8342D
:1006CB00C3120450602575CC6075CDF030CFFDC2E0
:1006DB00CFE53724FFF537E53634FFF536E535340E
:0E06EB00FFF535E53434FFF53480C8C2CA226D
:1006F9008F3B8E3A8D398C3875C40243C408E4FFA8
:10070900FEFDFCAB3BAA3AA939A838C312045060D4
:100719002875C56075C6F0E5C430E4FB53C4EFE540
:100729003B24FFF53BE53A34FFF53AE53934FFF56B
:0D07390039E53834FFF53880C553C4F72288
:03000000020502F4
:10050200787FE4F6D8FD9000007FFF7E03E4F0A33D
:0A051200DFFCDEFA75813F02055799
:10051C0002065BE493A3F8E493A34003F68001F294
:10052C0008DFF48029E493A3F85407240CC8C333E0
:10053C00C4540F4420C8834004F456800146F6DFAF
:10054C00E4800B0102040810204080900013E47E2C
:10055C00019360BCA3FF543F30E509541FFEE493A4
:10056C00A360010ECF54C025E060A840B8E493A36B
:10057C00FAE493A3F8E493A3C8C582C8CAC583CA96
:10058C00F0A3C8C582C8CAC583CADFE9DEE780BE4E
:0100170000E8
:1003820075F008758200EF2FFFEE33FECD33CDCC32
:1003920033CCC58233C5829BED9AEC99E5829840B5
:1003A2000CF582EE9BFEED9AFDEC99FC0FD5F0D692
:1003B200E4CEFBE4CDFAE4CCF9A88222B800C1B9BC
:1003C2000059BA002DEC8BF084CFCECDFCE5F0CBFA
:1003D200F97818EF2FFFEE33FEED33FDEC33FCEB33
:1003E20033FB10D703994004EB99FB0FD8E5E4F9EE
:1003F200FA227818EF2FFFEE33FEED33FDEC33FCDB
:10040200C933C910D7059BE99A4007EC9BFCE99ACE
:10041200F90FD8E0E4C9FAE4CCFB2275F010EF2F13
:10042200FFEE33FEED33FDCC33CCC833C810D70713
:100432009BEC9AE899400AED9BFDEC9AFCE899F84E
:0E0442000FD5F0DAE4CDFBE4CCFAE4C8F922E1
:10045000EB9FF5F0EA9E42F0E99D42F0E89C45F002
:010460002279
:10046100E8600FECC313FCED13FDEE13FEEF13FF79
:03047100D8F1229D
:10002600E517240BF8E60517227808300702780B47
:10003600E475F0011204CC0204742000EB7F2ED28A
:10004600008018EF540F2490D43440D4FF30040BB2
:10005600EF24BFB41A0050032461FFE518600215AF
:1000660018051BE51B7002051A30070D7808E475A4
:10007600F0011204CCEF0204BA0207DC7403D207C3
:100086008003E4C207F5178B088A09890AE4F51884
:10009600F51AF51BE51860077F2012006180F575DB
:1000A60019FFC201C200C202C203C205C206C208CB
:1000B60012002FFF700D3007057F00120072AF1B74
:1000C600AE1A22B4255FC2D5C20412002FFF24D077
:1000D600B40A00501A75F00A781830D50508B6FF2C
:1000E6000106C6A426F620D5047002D20380D924C0
:1000F600CFB41A00EF5004C2E5D204020272D20154
:1001060080C6D20080C0D20280BCD2D580BAD205C9
:1001160080B47F201200612002077401B5180040E8
:10012600F1120026FF12006102009AD208D2068060
:1001360095120026FB120026FA120026F94A4B7089
:100146000679437A037BFF20022EE518602A7E009B
:100156008E8275830012048D60060EEE651970F0AE
:10016600C2D5EBC0E0EAC0E0E9C0E0EE1202B9D0C9
:10017600E0F9D0E0FAD0E0FB120474FF60AAEBC00D
:10018600E0EAC0E0E9C0E0120061D0E02401F9D065
:10019600E03400FAD0E0FBE5190460DCD519D9801B
:1001A600877BFF7A0279B5D202809C79108002792A
:1001B60008C206C2088008D2D5790A8004790AC224
:1001C600D5E519047002F519E4FAFDFEFF120026C2
:1001D600FC7B08200113120026FD7B1030000A125A
:1001E6000026FE120026FF7B20EC3382D592D550E6
:1001F60013C3E43000069FFFE49EFEE42001039D46
:10020600FDE49CFCE4CBF8C201EC700CCFCECDCC67
:10021600E824F8F870F38017C3EF33FFEE33FEEDF2
:1002260033FDEC33FCEB33FB994002FB0FD8E9EBD3
:10023600300105F8D0E0C448B201C0E00AEC4D4EEA
:100246004F78207B0070C2EAB5190040BCC0E012AE
:1002560002BBD0F0D0E0200104C4C0E0C4B201C0AB
:10026600F012004AD0F0D5F0EB02009A1204DC013D
:10027600375301B15801084C01044201B54F01BD85
:0F0286004401BD49011D4301C35501A74601A70E
:100295004501A747036350010C2D01102E01332B97
:1002A500011423013120034C2A00CC480000012B06
:1002B5003F3F3F00790AA2D5200314300509B91044
:1002C500020404B9080104A2D52006025001042045
:1002D50002689202B518005034C0E07F203003193F
:1002E5007F30A20272067205500F120312C202C2BB
:1002F50006C205C2087F30800F300503E9C0E01251
:100305000061300503D0E0F9D0E0B518CC30051711
:100315007F30B9100C1200617F583004077F788058
:1003250003B908031200613002057F2D0200617FC9
:10033500202008F87F2B2006F322920280CF286E1A
:10034500756C6C2900D2011200263001F8C20178C3
:100355001830D50108F60200CC2D5043495812003B
:10036500262403B405004001E490035E9312005275
:0D037500743A120052D2037518040201B14F
:10047400BB010689828A83E0225002E722BBFE0286
:09048400E32289828A83E49322B9
:10048D00BB010CE58229F582E5833AF583E0225024
:10049D0006E92582F8E622BBFE06E92582F8E2226E
:0D04AD00E58229F582E5833AF583E4932288
:1004BA00BB010689828A83F0225002F722BBFE0121
:0204CA00F3221B
:1004CC00FAE6FB0808E6F925F0F618E6CA3AF62231
:1004DC00D083D082F8E4937012740193700DA3A3AF
:1004EC0093F8740193F5828883E4737402936860C3
:0604FC00EFA3A3A380DFC3
:1007DC00EFB40A07740D1207E7740A309811A89940
:1007EC00B8130CC2983098FDA899C298B811F6307D
:0707FC0099FDC299F5992255
:00000001FF
