:10034200A2AF9202C2AF75C7AA75C75543A504A250
:030352000292AF65
:10035500A2AF9202C2AF75C7AA75C75543A401A241
:100365000292AFE59F30E61CC2927F647E007D005D
:100375007C001202ACD2927F647E007D007C00126C
:0503850002AC80E4223F
:10038A00A2AF9202C2AF75C7AA75C755439F01A211
:10039A000292AFE4F5A6F5A775AEFF75AFE21203B8
:1003AA0042A2AF9202C2AF75C7AA75C75553A5FB41
:1003BA00A20292AFA2AF9202C2AF75C7AA75C75581
:0803CA00539FFEA20292AF2234
:10000300A2AF9202C2AF75C7AA75C755439F01A29B
:100013000292AFA2AF9202C2AF75C7AA75C755438A
:10002300A501A20292AF75AEFF75AF22E4F508F504
:1000330009E50975F080A4F5A6E509AE087807C3BC
:1000430033CE33CED8F9EEF5A71203550509E509EA
:1000530070020508C39440E508940040D4A2AF920F
:1000630002C2AF75C7AA75C75553A5FEA20292AFC8
:10007300A2AF9202C2AF75C7AA75C755539FFEA21E
:030083000292AF37
:010086002257
:1000FF00C200A2AF9202C2AF75C7AA75C755439F80
:10010F0001A20292AFE4F5A6F5A7F5AFF51DF51E16
:10011F00E4F5AE120355E5AEF46004D20080190584
:10012F00A6E5A6700205A7051EE51E7002051DC3F4
:10013F009440E51D940040D8A2AF9202C2AF75C79C
:10014F00AA75C755539FFEA20292AF300002D32269
:01015F00C3DC
:01016000227C
:10008700A2AF9202C2AF75C7AA75C755439F01A217
:100097000292AFA2AF9202C2AF75C7AA75C7554306
:1000A700A501A20292AFE4F5A6F5A775AEFF75AF5D
:1000B70021F508F50905AE12035505A6E5A6700258
:1000C70005A70509E50970020508C3E5089420405E
:1000D700E4A2AF9202C2AF75C7AA75C75553A5FE72
:1000E700A20292AFA2AF9202C2AF75C7AA75C75557
:0700F700539FFEA20292AF2D
:0100FE0022DF
:10016100C201A2AF9202C2AF75C7AA75C755439F1C
:1001710001A20292AFE4F5A6F5A7F5AFF51CF51AB9
:10018100F51B120355E5AE651C6004D2018019050B
:10019100A6E5A6700205A7051C051BE51B70020557
:1001A1001AC3E51A942040DAA2AF9202C2AF75C712
:1001B100AA75C755539FFEA20292AF300102D32206
:0101C100C37A
:0101C200221A
:1003D200A2AF9202C2AF75C7AA75C755439F01A2C9
:1003E2000292AF8FA6E4F5A78DAE75AFE11203427C
:1003F200A2AF9202C2AF75C7AA75C75553A5FBA299
:100402000292AFA2AF9202C2AF75C7AA75C7555387
:070412009FFEA20292AF223F
:1001C300E4F5B1F5B1F5B3F5B4F5ACF5ADC2927F95
:1001D3002C7E01FDFC1202ACD2927F2C7E017D00AD
:1001E3007C001202ACC2927F2C7E017D007C001247
:1001F30002ACD2921200031200877D0F7F04120318
:0E020300D27FC87E007D007C001202AC80FE1F
:10041900538EF7438901D28CEF4E6012758AF375BA
:100429008CFF308DFDC28DEF1F70ED1E80EAC28CEE
:0104390022A0
:1002AC008F0D8E0C8D0B8C0A538EF7438901D28CDB
:1002BC00E4FFFEFDFCAB0DAA0CA90BA80AC31204AB
:1002CC00546025758ACA758CFA308DFDC28DE50D8A
:1002DC0024FFF50DE50C34FFF50CE50B34FFF50BA5
:0B02EC00E50A34FFF50A80C8C28C222E
:1002F7008F118E108D0F8C0E538EEF438910D28E77
:10030700E4FFFEFDFCAB11AA10A90FA80EC312044F
:10031700546025758BCA758DFA308FFDC28FE51134
:1003270024FFF511E51034FFF510E50F34FFF50F45
:0B033700E50E34FFF50E80C8C28E22D8
:100211008F158E148D138C1253C9BF53C9DF43C977
:1002210010D2CAE4FFFEFDFCAB15AA14A913A81253
:10023100C3120454602575CC6075CDF030CFFDC27A
:10024100CFE51524FFF515E51434FFF514E5133456
:0E025100FFF513E51234FFF51280C8C2CA2271
:10025F008F198E188D178C1675C40243C408E4FFCE
:10026F00FEFDFCAB19AA18A917A816C312045460F7
:10027F002875C56075C6F0E5C430E4FB53C4EFE5DF
:10028F001924FFF519E51834FFF518E51734FFF5B4
:0D029F0017E51634FFF51680C553C4F7228D
:0300000002043ABD
:10043A00787FE4F6D8FD9000007FFF7E03E4F0A306
:0A044A00DFFCDEFA7581200201C319
:10045400EB9FF5F0EA9E42F0E99D42F0E89C45F0FE
:010464002275
:00000001FF
