:040185008F828E8354
:03018900E493FFFD
:01018C002250
:060003008E098F0A8D0B2F
:10000900E4F50CA907E9C394805004E4F980027966
:10001900807D807C00E97A002400FFEA3509F50D2E
:100029008F0EED7003EC6401601E850E82850D83D1
:10003900E4938D828C83F0050C0DBD00010C050E37
:10004900E50E70DE050D80DAAB0AA903E9C39480D9
:10005900E9500A2480FFE433FCAD0780037C00FDEE
:100069008D828C83E50BF08BA6E509FFF5A775AEAC
:10007900FFA2AF9200C2AF75C7AA75C755439F01CA
:10008900A20092AFA2AF9200C2AF75C7AA75C755B9
:1000990043A501A20092AF75AF22A2AF9200C2AFF1
:1000A90075C7AA75C75543A401A20092AFA903E970
:1000B900C394805004E4F9800279807C007D8089B2
:1000C900A68FA7A2AF9200C2AF75C7AA75C755433D
:1000D9009F01A20092AFA2AF9200C2AF75C7AA75E5
:1000E900C75543A501A20092AF75AF21EDF44C604D
:1000F900238D828C83E0F5AEA2AF9200C2AF75C7A3
:10010900AA75C75543A401A20092AF05A60DBD006B
:10011900010C80D8A2AF9200C2AF75C7AA75C755A6
:1001290053A5FEA20092AFA2AF9200C2AF75C7AAB3
:0A01390075C755539FFEA20092AF58
:010143002299
:100144007D557F817E381200037D567F8212000325
:100154007DAA7F551200037D667F561200037F82BD
:070164001201858F0880FEE7
:0300000002016B8F
:10016B00787FE4F6D8FD9000007FFF7E03E4F0A3D8
:0A017B00DFFCDEFA7581200201446A
:00000001FF
