:0300530002005652
:10005600C0E0C0F0C083C082C0D075D000C000C070
:1000660001C002C003C004C005C006C007C2927F1B
:10007600327E007D007C00120135D2927F327E00F6
:100086007D007C00120135C2927F327E007D007CAD
:1000960000120135D2927F327E007D007C00120173
:1000A60035A2AF9200C2AF75C7AA75C75553AADF6E
:1000B600A20092AFA2AF9200C2AF75C7AA75C7558C
:1000C60043AA40A20092AFD007D006D005D004D0F4
:1000D60003D002D001D000D0D0D082D083D0F0D0CF
:0200E600E03206
:1001CB00E4F5B1F5B1F5B3F5B4F5ACF5AD75C7AA7A
:1001DB0075C75575AA06A2AF9200C2AF75C7AA75AF
:1001EB00C75543AA80A20092AFA2AF9200C2AF75CF
:1001FB00C7AA75C75543AA40A20092AF439B10D222
:03020B00AF80FEC3
:10020E00538EF7438901D28CEF4E6012758AF375C7
:10021E008CFF308DFDC28DEF1F70ED1E80EAC28CFB
:01022E0022AD
:100135008F178E168D158C14538EF7438901D28C2B
:10014500E4FFFEFDFCAB17AA16A915A814C31202FD
:10015500496025758ACA758CFA308DFDC28DE51703
:1001650024FFF517E51634FFF516E51534FFF515EB
:0B017500E51434FFF51480C8C28C2292
:100180008F0B8E0A8D098C08538EEF438910D28E07
:10019000E4FFFEFDFCAB0BAA0AA909A808C31202E2
:1001A000496025758BCA758DFA308FFDC28FE50BBE
:1001B00024FFF50BE50A34FFF50AE50934FFF509DC
:0B01C000E50834FFF50880C8C28E225D
:100003008F0F8E0E8D0D8C0C53C9BF53C9DF43C99F
:1000130010D2CAE4FFFEFDFCAB0FAA0EA90DA80C7B
:10002300C3120249602575CC6075CDF030CFFDC297
:10003300CFE50F24FFF50FE50E34FFF50EE50D3484
:0E004300FFF50DE50C34FFF50C80C8C2CA2293
:1000E8008F138E128D118C1075C40243C408E4FF5F
:1000F800FEFDFCAB13AA12A911A810C31202496095
:100108002875C56075C6F0E5C430E4FB53C4EFE557
:100118001324FFF513E51234FFF512E51134FFF54A
:0D01280011E51034FFF51080C553C4F72217
:0300000002022FCA
:10022F00787FE4F6D8FD9000007FFF7E03E4F0A313
:0A023F00DFFCDEFA7581200201CB1E
:10024900EB9FF5F0EA9E42F0E99D42F0E89C45F00B
:010259002282
:00000001FF
